S00B00006C63642E73726563E6
S113000014C019C018C017C016C015C014C013C03E
S113001012C011C010C00FC00EC00DC00CC00BC068
S11300200AC009C008C007C006C011241FBECFED16
S1130030CDBF97D044C2E4CF81B38F6781BB82B375
S1130040807882BB909A8FE19EE40197F1F700C01B
S11300500000929A92E49A95F1F700C082B3886105
S113006082BB929887E690E10197F1F700C0000007
S1130070929A92E49A95F1F700C0929888EC8A9546
S1130080F1F7929A92E49A95F1F700C0929887EE6C
S113009093E00197F1F700C00000929A92E49A95D8
S11300A0F1F700C09398929887EE93E00197F1F7E7
S11300B000C0000008959198982F9695880F880F96
S11300C0880F929A22E42A95F1F700C022B3277888
S11300D022BB22B39877922B92BB929892E49A9582
S11300E0F1F700C0929A22E42A95F1F700C092B386
S11300F0977892BB92B38877892B82BB929887EECC
S113010093E00197F1F700C000000895919A982FA9
S11301109695880F880F880F929A22E42A95F1F712
S113012000C022B3277822BB22B39877922B92BBCC
S1130130929892E49A95F1F700C0929A22E42A9553
S1130140F1F700C092B3977892BB92B38877892B6A
S113015082BB929887EE93E00197F1F700C000000C
S113016008956ADF88E2A7DF8FE0A5DF86E0A3DFDA
S113017080E4A1DF8FE1CADF8EE1C8DF8EE1C6DF54
S11301808CE1C4DF8CE1C2DF88E1C0DF88E1BEDF3F
S113019080E1BCDF80E1BADF88E1B8DF88E1B6DF67
S11301A08CE1B4DF8CE1B2DF8EE1B0DF8EE1AEDF53
S11301B08FE1ACDF80E0AADF81E0A8DF81E0A6DF89
S11301C083E0A4DF83E0A2DF87E0A0DF87E09EDF97
S11301D08FE09CDF8FE09ADF87E098DF87E096DF8F
S11301E083E094DF83E092DF81E090DF81E08EDFC3
S11301F080E08CDF81E18ADF8EE088DF81E186DFC9
S113020085E184DF81E182DF8EE080DF8AE07EDFCA
S11302108BE17CDF80E84FDF87E578DF2FEF80E735
S113022092E0215080409040E1F700C0000081E658
S11302306DDF2FEF80E792E0215080409040E1F79E
S113024000C000008BE662DF2FEF80E792E02150D0
S113025080409040E1F700C0000085E657DF2FEFB3
S113026080E792E0215080409040E1F700C0000018
S113027080E24CDF2FEF80E792E0215080409040F5
S1130280E1F700C0000085E741DF2FEF80E792E04F
S1130290215080409040E1F700C0000080E736DF45
S11302A02FEF80E792E0215080409040E1F700C0BA
S11302B000008CE22BDF2FEF80E792E0215080409A
S11302C09040E1F700C0000080E220DF2FEF80E7DC
S11302D092E0215080409040E1F700C000008EE49D
S11302E015DF2FEF80E792E0215080409040E1F746
S11302F000C0000085E60ADF2FEF80E792E021507E
S113030080409040E1F700C000008FE6FFDE2FEF51
S113031080E792E0215080409040E1F700C0000067
S113032081E2F4DE2FEF80E792E02150804090409C
S1130330E1F700C0000080E2E9DE2FEF80E792E001
S1130340215080409040E1F700C0000080E2DEDEF2
S11303502FEF80E792E0215080409040E1F700C009
S1130360000080ECA8DE89E5D1DE2FEF80E792E083
S1130370215080409040E1F700C000008FE6C6DEC7
S11303802FEF80E792E0215080409040E1F700C0D9
S1130390000085E7BBDE2FEF80E792E0215080402C
S11303A09040E1F700C0000080E2B0DE2FEF80E76C
S11303B092E0215080409040E1F700C000008FE6B9
S11303C0A5DE2FEF80E792E0215080409040E1F7D6
S11303D000C0000082E69ADE2FEF80E792E0215011
S11303E080409040E1F700C000008FE68FDE2FEFE1
S11303F080E792E0215080409040E1F700C0000087
S113040083E784DE2FEF80E792E021508040904024
S1130410E1F700C0000082E779DE2FEF80E792E089
S1130420215080409040E1F700C0000081E66EDE7C
S11304302FEF80E792E0215080409040E1F700C028
S113044000008CE663DE2FEF80E792E021508040CD
S11304509040E1F700C0000083E758DE2FEF80E70B
S113046092E0215080409040E1F700C0000089E70D
S11304704DDE2FEF80E792E0215080409040E1F77D
S113048000C0000081E642DE2FEF80E792E02150B9
S113049080409040E1F700C0000081E237DE2FEF9A
S11304A080E792E0215080409040E1F700C00000D6
S11304B08FE801DE84E02ADE8FECFDDDFFCFF894C7
S10504C0FFCF68
S9030000FC
